:100000000C945D000C9485000C9485000C94850084
:100010000C9485000C9485000C9485000C9485004C
:100020000C9485000C9485000C9485000C9485003C
:100030000C9485000C9485000C9485000C9485002C
:100040000C9411020C9485000C9485000C9485008E
:100050000C9485000C9485000C9485000C9485000C
:100060000C945B020C948500000000080002010063
:100070000003040700000000000000000000000072
:10008000250028002B0000000000240027002A0083
:10009000040404040404040402020202020203032E
:1000A0000303030301020408102040800102040836
:1000B0001020010204081020940411241FBECFEF69
:1000C000D8E0DEBFCDBF11E0A0E0B1E0E4E6F9E0AA
:1000D00002C005900D92A031B107D9F721E0A0E14F
:1000E000B1E001C01D92AD3BB207E1F710E0CDE5F4
:1000F000D0E004C02197FE010E94A504CC35D107B1
:10010000C9F70E9489030C94B0040C94000090E09D
:10011000FC01EC55FF4F2491FC01E057FF4F849107
:10012000882399F090E0880F991FFC01EA57FF4F50
:10013000A591B491FC01E458FF4F859194918FB73C
:10014000F894EC91E22BEC938FBF08950895E09121
:10015000A201F091A301309729F010929B01109217
:100160009A0109940895CF93DF93AC01E091A40123
:10017000F091A5013097F1F090919D0180919C0143
:100180009817C0F090E0292F30E02617370754F475
:10019000D901A05FBE4FEA01C20FD31F88818C93A3
:1001A0009F5FF1CF10929D0160939C01CB01DF9185
:1001B000CF910994DF91CF910895CF92DF92EF9282
:1001C000FF920F931F93CF93DF936C017A018B0102
:1001D000C0E0D0E0CE15DF0589F0D8016D918D012A
:1001E000D601ED91FC910190F081E02DC6010995B9
:1001F000892B11F47E0102C02196ECCFC701DF915B
:10020000CF911F910F91FF90EF90DF90CF900895C5
:1002100090E0FC01E859FF4F3491FC01EC55FF4F91
:100220002491FC01E057FF4FE491EE2309F43BC019
:10023000332339F1333091F038F43130A9F03230D2
:1002400001F584B58F7D12C0373091F03830A1F0C0
:100250003430B9F4809180008F7D03C0809180009C
:100260008F77809380000DC084B58F7784BD09C0DF
:100270008091B0008F7703C08091B0008F7D809314
:10028000B000F0E0EE0FFF1FE458FF4FA591B491CE
:100290008FB7F894EC91611103C020952E2301C013
:1002A0002E2B2C938FBF089585ED8093BC008091F9
:1002B000BC0084FDFCCF109299010895409150013B
:1002C000262F30E0240F311D21323105DCF420913E
:1002D00099012430C9F4FC0180E090E0861758F4BD
:1002E000309150012191DC01A05DBE4FA30FB11DE3
:1002F0002C930196F3CF80915001680F60935001C9
:1003000080E0089581E0089582E008950895E091E5
:100310009D0180919C01E81730F4F0E0E05FFE4F12
:10032000808190E008958FEF9FEF089590919D0157
:1003300080919C01981750F4E92FF0E0E05FFE4FA8
:10034000208130E09F5F90939D0102C02FEF3FEF2F
:10035000C9010895EF92FF920F931F93CF93DF93FC
:100360007C011092B3011092B201C0E0D0E0CE1532
:10037000DF050CF586EA91E0209739F40E9496019A
:100380009093B3018093B20114C0C130D10579F4C8
:100390000E949601182F00E02091B2013091B30124
:1003A000202B312B3093B3012093B20102C00E9465
:1003B00096012196DCCFDF91CF911F910F91FF9095
:1003C000EF90089580919C0190E020919D01821B07
:1003D00091090895CF93DF9300D0CDB7DEB7CB015D
:1003E000642F49835A830E945E014981842F5A8178
:1003F000952F0F900F90DF91CF910895CF93DF93BA
:100400001F92CDB7DEB7698361E0CE0101960E94ED
:100410005E0181E090E00F90DF91CF9108950E94FE
:10042000AB041F920F920FB60F9211242F933F939C
:100430008F939F93AF93BF938091B9019091BA012D
:10044000A091BB01B091BC013091B80123E0230F12
:100450002D3720F40196A11DB11D05C026E8230FFC
:100460000296A11DB11D2093B8018093B90190930C
:10047000BA01A093BB01B093BC018091B4019091EB
:10048000B501A091B601B091B7010196A11DB11DB2
:100490008093B4019093B501A093B601B093B701D6
:1004A000BF91AF919F918F913F912F910F900FBE70
:1004B0000F901F9018951F920F920FB60F92112454
:1004C0002F933F934F935F936F937F938F939F935C
:1004D000AF93BF93EF93FF938091B900887F8036ED
:1004E00009F49CC068F5883209F45BC090F480314F
:1004F00009F454C038F4882309F4F6C0883009F4AC
:100500004DC0F6C0883109F44CC0803209F45DC09A
:10051000EFC0803409F468C048F4803309F455C052
:10052000883309F0E5C080937301D8C0803509F4A1
:100530004FC0883509F45DC0883409F0D9C0D6C0F1
:10054000883909F4C7C0A8F4883709F467C038F4BB
:10055000883609F463C0803709F460C0C9C08838A0
:1005600009F4B8C0803909F45FC0803809F0C0C010
:100570005BC0803B09F486C038F4803A09F466C059
:10058000883A09F47FC0B4C0803C09F4A7C0883C15
:1005900009F4A4C0883B09F48AC0AAC080919601DE
:1005A00010C09091950180919401981770F5E09199
:1005B000950181E08E0F80939501F0E0EC58FE4F9D
:1005C00080818093BB0085EC86C0809373018EC0D0
:1005D000E091950181E08E0F809395018091BB00A1
:1005E000F0E0EC58FE4F808390919501809194014A
:1005F0006EC0E091950181E08E0F8093950180910E
:10060000BB00F0E0EC58FE4F80838091980181118F
:100610006DC081E08093970184EA61C083E080939C
:10062000990110927201CFCF80917201803208F04F
:1006300051C0E091720181E08E0F80937201809130
:10064000BB00F0E0EE5AFE4F8083BDCF85EC809377
:10065000BC001092990180917201803230F4E091D7
:100660007201F0E0EE5AFE4F10826091720170E06C
:10067000E0919E01F0919F0182E591E00995109231
:10068000720136C084E0809399011092510110925A
:100690005001E091A001F091A101099580915001D4
:1006A000811105C081E08093500110923001E091EA
:1006B000510181E08E0F80935101F0E0E05DFE4F2B
:1006C00080818093BB0090915101809150019817D7
:1006D00008F479CF85E88093BC000AC085EC80934C
:1006E000BC001092990104C0109273010E94540141
:1006F000FF91EF91BF91AF919F918F917F916F91FA
:100700005F914F913F912F910F900FBE0F901F90CF
:100710001895789484B5826084BD84B5816084BD69
:1007200085B5826085BD85B5816085BD80916E008F
:10073000816080936E0010928100809181008260C0
:1007400080938100809181008160809381008091FD
:1007500080008160809380008091B10084608093EC
:10076000B1008091B00081608093B00080917A00E8
:10077000846080937A0080917A00826080937A000E
:1007800080917A00816080937A0080917A008068FD
:1007900080937A001092C10082E08093BA0087EAC9
:1007A00090E09093A1018093A00183EB90E090935F
:1007B0009F0180939E0110929D0110929C011092C6
:1007C0009B0110929A011092990181E08093980107
:1007D0001092970161E082E10E94080161E083E1EB
:1007E0000E9408018091B9008E7F8093B9008091AA
:1007F000B9008D7F8093B90088E48093B80085E4C8
:100800008093BC0086EA90E09093A3018093A201BC
:100810008AEA91E09093A5018093A4018EE00E9462
:1008200087008FE00E94870080E10E94870081E1BD
:100830000E94870080E00E94870081E00E9487007C
:1008400082E00E94870083E00E94870084E00E948B
:10085000870085E00E9487008DE00E94870000E00D
:1008600010E0C091B201D091B301C0FF02C061E0BD
:1008700001C060E08EE00E940801C1FF02C061E09B
:1008800001C060E08FE00E940801C2FF02C061E089
:1008900001C060E080E10E940801C3FF02C061E086
:1008A00001C060E081E10E940801C6FF02C061E072
:1008B00001C060E080E00E940801C7FF02C061E063
:1008C00001C060E081E00E940801D0FF02C061E049
:1008D00001C060E082E00E940801D1FF02C061E037
:1008E00001C060E083E00E940801D2FF02C061E025
:1008F00001C060E084E00E940801D3FF02C061E013
:1009000001C060E085E00E940801D4FF02C061E000
:1009100001C060E08DE00E9408010115110509F495
:10092000A0CF0E9400009DCFE6EAF1E01382128280
:1009300088EE93E0A0E0B0E084839583A683B7833C
:1009400084E091E0918380830895EE0FFF1F05906E
:10095000F491E02D099481E090E0F8940C94B004B7
:04096000F894FFCF39
:1009640000000000FE01EA01E20196018701860110
:107E0000112484B714BE81FFF0D085E080938100F7
:107E100082E08093C00088E18093C10086E0809377
:107E2000C20080E18093C4008EE0C9D0259A86E02C
:107E300020E33CEF91E0309385002093840096BBD3
:107E4000B09BFECF1D9AA8958150A9F7CC24DD24C4
:107E500088248394B5E0AB2EA1E19A2EF3E0BF2EE7
:107E6000A2D0813461F49FD0082FAFD0023811F036
:107E7000013811F484E001C083E08DD089C08234E0
:107E800011F484E103C0853419F485E0A6D080C0E4
:107E9000853579F488D0E82EFF2485D0082F10E0AE
:107EA000102F00270E291F29000F111F8ED06801E7
:107EB0006FC0863521F484E090D080E0DECF843638
:107EC00009F040C070D06FD0082F6DD080E0C81688
:107ED00080E7D80618F4F601B7BEE895C0E0D1E017
:107EE00062D089930C17E1F7F0E0CF16F0E7DF06D8
:107EF00018F0F601B7BEE89568D007B600FCFDCFD4
:107F0000A601A0E0B1E02C9130E011968C91119780
:107F100090E0982F8827822B932B1296FA010C0160
:107F200087BEE89511244E5F5F4FF1E0A038BF0790
:107F300051F7F601A7BEE89507B600FCFDCF97BE46
:107F4000E89526C08437B1F42ED02DD0F82E2BD052
:107F50003CD0F601EF2C8F010F5F1F4F84911BD097
:107F6000EA94F801C1F70894C11CD11CFA94CF0C13
:107F7000D11C0EC0853739F428D08EE10CD085E9AC
:107F80000AD08FE07ACF813511F488E018D01DD067
:107F900080E101D065CF982F8091C00085FFFCCF94
:107FA0009093C60008958091C00087FFFCCF809118
:107FB000C00084FD01C0A8958091C6000895E0E648
:107FC000F0E098E1908380830895EDDF803219F02E
:107FD00088E0F5DFFFCF84E1DECF1F93182FE3DFCA
:107FE0001150E9F7F2DF1F91089580E0E8DFEE27F6
:047FF000FF270994CA
:027FFE00040479
:0400000300007E007B
:00000001FF
